S02B0000395F50574D5F56656C6F63696461644D6F746F725F496E74657272757063696F6E65732E7372656339
S11300000C9434000C9408010C9468010C94510075
S11300100C9451000C9451000C9451000C94510018
S11300200C9451000C9451000C9451000C94510008
S11300300C9451000C9451000C9451000C945100F8
S11300400C9451000C9451000C9451000C945100E8
S11300500C9451000C9451000C9451000C945100D8
S11300600C9451000C94510011241FBECFEFD8E022
S1130070DEBFCDBF11E0A0E0B1E0ECE1FEE002C0E4
S113008005900D92AA32B107D9F721E0AAE2B1E0B6
S113009001C01D92AE33B207E1F70E94C8010C946F
S11300A00C070C940000982F907F9695969598B91C
S11300B098B19E7F98B998B1926098B9EFE9FFE042
S11300C03197F1F700C0000098B19D7F98B9EFE334
S11300D0FCE93197F1F700C0000090E0880F991F08
S11300E0880F991F8C7388B988B18E7F88B988B1BD
S11300F0826088B98FE99FE00197F1F700C00000A2
S113010088B18D7F88B9EFE3FCE93197F1F700C03E
S11301100000089582E00E94530088E20E94530088
S11301208EE00E94530086E00E94530081E00E940A
S1130130530080E80E9453000895982F907F96956D
S1130140969598B998B1936098B9EFE9FFE0319723
S1130150F1F700C0000098B19D7F98B998B19E7FD7
S113016098B9EFE3FCE93197F1F700C0000090E0A3
S1130170880F991F880F991F8C7388B988B1836081
S113018088B98FE99FE00197F1F700C0000088B1BA
S11301908D7F88B988B18E7F88B9EFE3FCE9319708
S11301A0F1F700C0000008950F931F93CF93DF93DE
S11301B08C01C0E0D0E003C00E949D002196F801AC
S11301C0EC0FFD1F80818111F7CFDF91CF911F913B
S11301D00F91089581E00E945300089582E00E94E7
S11301E05300089580680E9453000895806C0E9413
S11301F0530008950E948A000E94EA000E94EE00C3
S113020080E00E94F20084E091E00E94D40008950E
S11302101F920F920FB60F9211242F933F934F9377
S11302205F936F937F938F939F93AF93BF93EF935A
S1130230FF9320E030E040E85FE360913201709189
S1130240330180913401909135010E94C80260937A
S1130250320170933301809334019093350120E08F
S113026030E040E85FE360912E0170912F018091AE
S11302703001909131010E94C80260932E01709365
S11302802F01809330019093310180912C01909142
S11302902D01059790932D0180932C0180912A01C3
S11302A090912B010A9790932B0180932A01FF913F
S11302B0EF91BF91AF919F918F917F916F915F91DA
S11302C04F913F912F910F900FBE0F901F90189553
S11302D01F920F920FB60F9211242F933F934F93B7
S11302E05F936F937F938F939F93AF93BF93EF939A
S11302F0FF9320E030E040E85FE3609132017091C9
S1130300330180913401909135010E94C9026093B8
S1130310320170933301809334019093350120E0CE
S113032030E040E85FE360912E0170912F018091ED
S11303303001909131010E94C90260932E017093A3
S11303402F01809330019093310180912C01909181
S11303502D01059690932D0180932C0180912A0103
S113036090912B010A9690932B0180932A01FF917F
S1130370EF91BF91AF919F918F917F916F915F9119
S11303804F913F912F910F900FBE0F901F90189592
S1130390F89480E48AB982E084B98FEF87B98DB389
S11303A081608DBB8DB382608DBBE9E6F0E0808116
S11303B08360808380818C60808383E883BD84B57F
S11303C0806884BDE0E8F0E080818068808384B543
S11303D0816084BD80818160808385B5856085BDB1
S11303E0E1E8F0E08081856080838081886080839B
S11303F013BC78940E94FA002091320130913301A9
S113040040913401509135016091000170910101D6
S113041080910201909103010E94B5030E9435036B
S113042067BD2091320130913301409134015091E4
S11304303501609100017091010180910201909158
S113044003010E94B5030E943503709389006093F1
S1130450880091E020912C0130912D012630310546
S11304600CF090E081E020912A0130912B01232BA4
S113047009F080E0892339F08CE00E94F60084E1E1
S113048091E00E94D40091E020912C0130912D0143
S1130490243631050CF090E081E020912A0130915E
S11304A02B01243631050CF080E0892339F08EE0ED
S11304B00E94F60086E191E00E94D40080912A0116
S11304C090912B01892B39F48DE00E94F60087E18D
S11304D091E00E94D40091E020912C0130912D01F3
S11304E02530310509F090E081E020912A01309116
S11304F02B012A30310509F080E0892339F08DE0A1
S11305000E94F60087E191E00E94D40080E00E94FE
S1130510F60089E191E00E94D40080912D018F932F
S113052080912C018F93CDE1D1E0DF93CF9386E3CB
S113053091E09F938F930E94220486E391E00E94AE
S1130540D40080E291E00E94D40084E291E00E9411
S1130550D40080912B018F9380912A018F93DF9394
S1130560CF938AE391E09F938F930E9422048AE3BE
S113057091E00E94D40088E291E00E94D4008DB7FB
S11305809EB70C960FB6F8949EBF0FBE8DBF34CFA6
S11305905058BB27AA270E94E0020C947B030E94B8
S11305A06D0338F00E94740320F039F49F3F19F46E
S11305B026F40C946A030EF4E095E7FB0C946403B0
S11305C0E92F0E948C0358F3BA1762077307840754
S11305D0950720F079F4A6F50C94AE030EF4E0959B
S11305E00B2EBA2FA02D0B01B90190010C01CA01E9
S11305F0A0011124FF27591B99F0593F50F4503E94
S113060068F11A16F040A22F232F342F4427585F85
S1130610F3CF469537952795A795F0405395C9F79D
S11306207EF41F16BA0B620B730B840BBAF0915055
S1130630A1F0FF0FBB1F661F771F881FC2F70EC0F4
S1130640BA0F621F731F841F48F4879577956795C7
S1130650B795F7959E3F08F0B0CF9395880F08F0B3
S11306609927EE0F9795879508950E94940388F033
S11306709F5798F0B92F9927B751B0F0E1F0660F62
S1130680771F881F991F1AF0BA95C9F714C0B130A3
S113069091F00E94AE03B1E008950C94AE03672F6D
S11306A0782F8827B85F39F0B93FCCF386957795D2
S11306B06795B395D9F73EF49095809570956195BB
S11306C07F4F8F4F9F4F089597F99F6780E870E0A1
S11306D060E008959FEF80EC089500240A941616B4
S11306E0170618060906089500240A94121613061C
S11306F0140605060895092E0394000C11F48823AA
S113070052F0BB0F40F4BF2B11F460FF04C06F5FC5
S11307107F4F8F4F9F4F089557FD9058440F551F9B
S113072059F05F3F71F04795880F97FB991F61F06F
S11307309F3F79F087950895121613061406551FE6
S1130740F2CF4695F1DF08C0161617061806991F52
S1130750F1CF86957105610508940895E894BB2747
S113076066277727CB0197F908950E94C8030C9454
S11307707B030E946D0338F00E94740320F09523DC
S113078011F00C9464030C946A0311240C94AF03C9
S11307900E948C0370F3959FC1F3950F50E0551F91
S11307A0629FF001729FBB27F00DB11D639FAA27C2
S11307B0F00DB11DAA1F649F6627B00DA11D661F11
S11307C0829F2227B00DA11D621F739FB00DA11D32
S11307D0621F839FA00D611D221F749F3327A00DEC
S11307E0611D231F849F600D211D822F762F6A2F88
S11307F011249F5750409AF0F1F088234AF0EE0FED
S1130800FF1FBB1F661F771F881F91505040A9F719
S11308109E3F510580F00C9464030C94AF035F3F3A
S1130820E4F3983ED4F3869577956795B795F79555
S1130830E7959F5FC1F7FE2B880F911D96958795CD
S113084097F90895AEE0B0E0E8E2F4E00C94E30632
S11308500D891E8986E08C831A8309838FEF9FE7B5
S11308609E838D83AE01475E5F4F6F89788DCE0185
S113087001960E944404EF81F885E00FF11F108275
S11308802E96E4E00C94FF06ABE0B0E0EAE4F4E07A
S11308900C94D5066C017B018A01FC011782168237
S11308A0838181FFCCC1CE0101963C01F601938185
S11308B0F70193FD859193FF81917F01882309F4CA
S11308C0BAC1853239F493FD859193FF81917F01FB
S11308D0853229F4B60190E00E943B06E7CF912CC3
S11308E0212C312CFFE1F315D8F08B3279F038F458
S11308F0803279F08332A1F4232D20611DC08D3222
S113090061F0803369F4232D216016C0832D826049
S1130910382EE32DE4603E2E2AC0F32DF8601DC06E
S113092037FC2DC020ED280F2A3040F08E32B9F468
S113093036FC81C1232D2064322E19C036FE06C038
S11309408AE0989E200D1124922E11C0EAE02E9E7A
S1130950200D1124222EF32DF0623F2E08C08C3678
S113096021F4832D8068382E02C0883641F4F701C3
S113097093FD859193FF81917F018111B3CF982FCE
S11309809F7D9554933028F40C5F1F4F9FE3998308
S11309900DC0833631F0833771F0833509F059C0C7
S11309A021C0F801808189830E5F1F4F88248394BE
S11309B0912C530113C02801F2E04F0E511CF80191
S11309C0A080B18036FE03C0692D70E002C06FEFD5
S11309D07FEFC5010E9430064C018201F32DFF77A1
S11309E03F2E16C0280122E0420E511CF801A080BF
S11309F0B18036FE03C0692D70E002C06FEF7FEF57
S1130A00C5010E9425064C01F32DF0683F2E82019A
S1130A1033FC1BC0822D90E088169906B0F4B60111
S1130A2080E290E00E943B062A94F4CFF50137FC63
S1130A30859137FE81915F01B60190E00E943B06EB
S1130A4021102A9421E0821A91088114910471F7EB
S1130A50E8C0843611F0893641F5F80137FE07C045
S1130A6060817181828193810C5F1F4F08C0608116
S1130A707181072E000C880B990B0E5F1F4FF32D0D
S1130A80FF763F2E97FF09C09095809570956195EC
S1130A907F4F8F4F9F4FF0683F2E2AE030E0A30135
S1130AA00E947706882E861845C0853731F4232D99
S1130AB02F7EB22E2AE030E025C0932D997FB92EE7
S1130AC08F36C1F018F4883579F0B5C0803719F045
S1130AD0883721F0B0C0E92FE061BE2EB4FE0DC00E
S1130AE0FB2DF460BF2E09C034FE0AC0292F2660F6
S1130AF0B22E06C028E030E005C020E130E002C09C
S1130B0020E132E0F801B7FE07C060817181828183
S1130B1093810C5F1F4F06C06081718180E090E07B
S1130B200E5F1F4FA3010E947706882E8618FB2DA7
S1130B30FF773F2E36FE0DC0232D2E7FA22E891463
S1130B4058F434FE0BC032FC09C0832D8E7EA82ECF
S1130B5005C0B82CA32C03C0B82C01C0B92CA4FE2A
S1130B600FC0FE01E80DF11D8081803321F49A2D20
S1130B70997EA92E09C0A2FE06C0B394B39404C002
S1130B808A2D867809F0B394A3FC11C0A0FE06C098
S1130B90B21488F4280C922C9B180EC0B21460F482
S1130BA0B60180E290E00E943B06B394F7CFB21402
S1130BB018F42B1802C0982C212CA4FE10C0B601E6
S1130BC080E390E00E943B06A2FE17C0A1FC03C094
S1130BD088E790E002C088E590E0B6010CC08A2D59
S1130BE0867859F0A1FE02C08BE201C080E2A7FC26
S1130BF08DE2B60190E00E943B06891438F4B601F8
S1130C0080E390E00E943B069A94F7CF8A94F30124
S1130C10E80DF11D8081B60190E00E943B06811031
S1130C20F5CF222009F442CEB60180E290E00E9482
S1130C303B062A94F6CFF6018681978102C08FEF96
S1130C409FEF2B96E2E10C94F106FC0105906150B4
S1130C5070400110D8F7809590958E0F9F1F0895CE
S1130C60FC016150704001900110D8F78095909577
S1130C708E0F9F1F08950F931F93CF93DF93FB0154
S1130C80238121FD03C08FEF9FEF2CC022FF16C0EC
S1130C9046815781248135814217530744F4A0814A
S1130CA0B1819D012F5F3F4F318320838C93268137
S1130CB037812F5F3F4F3783268314C08B01EC01AC
S1130CC0FB010084F185E02D0995892BE1F6D8011B
S1130CD016968D919C911797019617969C938E93D7
S1130CE01697CE01DF91CF911F910F910895FA01CC
S1130CF0AA27283051F1203181F1E8946F936E7F57
S1130D006E5F7F4F8F4F9F4FAF4FB1E03ED0B4E047
S1130D103CD0670F781F891F9A1FA11D680F791F88
S1130D208A1F911DA11D6A0F711D811D911DA11D99
S1130D3020D009F468943F912AE0269F11243019A9
S1130D40305D3193DEF6CF010895462F4770405D44
S1130D504193B3E00FD0C9F7F6CF462F4F70405DF3
S1130D604A3318F0495D31FD4052419302D0A9F74E
S1130D70EACFB4E0A6959795879577956795BA9548
S1130D80C9F700976105710508959B01AC010A2E0E
S1130D9006945795479537952795BA95C9F7620FE5
S1130DA0731F841F951FA01D08952F923F924F9289
S1130DB05F926F927F928F929F92AF92BF92CF92E7
S1130DC0DF92EF92FF920F931F93CF93DF93CDB7F0
S1130DD0DEB7CA1BDB0B0FB6F894DEBF0FBECDBF68
S1130DE009942A88398848885F846E847D848C8439
S1130DF09B84AA84B984C884DF80EE80FD800C8142
S1130E001B81AA81B981CE0FD11D0FB6F894DEBF24
S10F0E100FBECDBFED010895F894FFCF94
S1130E1C2EFF794044757479206379636C65206C7A
S1130E2C65647300202020200054303A00256400AF
S10D0E3C252C200054313A00250053
S9030000FC
