:100000000C9461000C947E000C947E000C947E0095
:100010000C947E000C947E000C947E000C947E0068
:100020000C947E000C947E000C947E000C947E0058
:100030000C947E000C947E000C947E000C947E0048
:100040000C947E000C947E000C947E000C947E0038
:100050000C947E000C947E000C947E000C947E0028
:100060000C947E000C947E0008000000BE9224498F
:10007000123EABAAAA2ABECDCCCC4C3E00000080DA
:10008000BEABAAAAAA3E00000000BF000000803F4D
:100090000000000000084178D3BB4387D1133D190D
:1000A0000E3CC3BD4282AD2B3E68EC8276BED98F3A
:1000B000E1A93E4C80EFFFBE01C4FF7F3F0000007E
:1000C000000011241FBECFEFD8E0DEBFCDBF11E08E
:1000D000A0E0B1E0E2EAFEE002C005900D92AA3293
:1000E000B107D9F721E0AAE2B1E001C01D92AC341A
:1000F000B207E1F70E9411020C944F070C94000024
:10010000982F907F9695969595B995B19E7F95B9C4
:1001100095B1926095B9EFE9FFE03197F1F700C032
:10012000000095B19D7F95B9EFE3FCE93197F1F7B8
:1001300000C0000090E0880F991F880F991F8C73F2
:1001400085B985B18E7F85B985B1826085B98FE922
:100150009FE00197F1F700C0000085B18D7F85B960
:10016000EFE3FCE93197F1F700C00000089582E069
:100170000E94800088E20E9480008EE00E94800041
:1001800086E00E94800081E00E94800080E80E945A
:1001900080000895982F907F9695969595B995B182
:1001A000936095B9EFE9FFE03197F1F700C00000E7
:1001B00095B19D7F95B995B19E7F95B9EFE9FFE027
:1001C0003197F1F700C0000090E0880F991F880F69
:1001D000991F8C7385B985B1836085B98FE99FE0DC
:1001E0000197F1F700C0000085B18D7F85B985B119
:1001F0008E7F85B9EFE9FFE03197F1F700C000008D
:10020000089580E40E9480008FE99FE00197F1F754
:1002100000C000008FE10E94CA008FE99FE00197B3
:10022000F1F700C000008BE10E94CA008FE99FE057
:100230000197F1F700C000008DE10E94CA008FE92C
:100240009FE00197F1F700C0000080E00E94CA0023
:100250008FE99FE00197F1F700C000008DE10E9457
:10026000CA008FE99FE00197F1F700C000008BE121
:100270000E94CA008FE99FE00197F1F700C00000DB
:100280008FE10E94CA008FE99FE00197F1F700C05B
:1002900000008FE10E94CA008FE99FE00197F1F70B
:1002A00000C0000008950F931F93CF93DF938C013C
:1002B000C0E0D0E003C00E94CA002196F801EC0F14
:1002C000FD1F80818111F7CFDF91CF911F910F9199
:1002D000089581E00E948000089580680E94800057
:1002E0000895806C0E9480000895019721F48FE0AA
:1002F0000E94800008958CE00E948000089580E4B0
:1003000080937C0087E880937A000895ECE7F0E022
:100310009081987F8770892B8083EAE7F0E0808165
:100320008064808380917A0086FDFCCF8091780084
:10033000909179000895805D0895EF92FF920F9358
:100340001F93CF93DF937C018B01C0E0D0E00CC002
:10035000FE01EE0FFF1FEE0DFF1D808191810E94B7
:100360009B010E94CA002196C017D10788F3DF9134
:10037000CF911F910F91FF90EF900895EF92FF9210
:100380000F931F93CF93DF93EC01BC01990F880B60
:10039000990B0E9429040E94B50420E030E040E857
:1003A0005FE30E9413030E94F103DC01CB018C0187
:1003B00062E070E00E940B067C0120E030E014C097
:1003C000F801E21BF30BE150F048EE0FFF1FEE0DBA
:1003D000FF1DCE016AE070E00E94E30591838083F7
:1003E0002F5F3F4FC62FD72F201731074CF3C70180
:1003F000DF91CF911F910F91FF90EF900895BC0175
:10040000990F880B990B0E9429040E94B50420E0E3
:1004100030E040E85FE30E9413030E94F103CB0148
:1004200008958FEF84B980EF8AB987B1846087B966
:10043000F8940E947F0178940E94B7000E9469019D
:100440000E9401018FE39CE90197F1F700C00000D1
:1004500080E090E00E94750186E00E946D0186E0D8
:1004600091E00E9453019FEF23ED80E391502040E3
:100470008040E1F700C0000080E00E9471018CE044
:1004800091E00E94530180E090E00E948601BC014F
:10049000990F880B990B0E94290460933C0170937B
:1004A0003D0180933E0190933F0120E030E040EA1F
:1004B00050E40E94410520E030E040E85AE30E9409
:1004C000410520E030E040E854E40E9441052BED76
:1004D00039EF4EE75EE30E94410520E030E040EA5C
:1004E00050E40E947F036093380170933901809338
:1004F0003A0190933B018FE39CE90197F1F700C02B
:10050000000082E00E946D018DE191E00E945301A4
:1005100087E00E946D0160913801709139018091EE
:100520003A0190913B010E94F1036B017C01CB01E8
:100530000E94FF01EC01C6010E94BE01BE010E94A3
:100540009D018EE20E94CA006091380170913901CC
:1005500080913A0190913B010E94F103072E000C1B
:10056000880B990B0E94290460932A0170932B0138
:1005700080932C0190932D0140E451E00E940D05E1
:1005800020E030E44CE156E40E94410560934401D0
:100590007093450180934601909347010E94F103B7
:1005A0006B017C01CB010E94FF01EC01C6010E949E
:1005B000BE01BE010E949D0186E50E94CA0081E045
:1005C00090E00E948601BC01990F880B990B0E9454
:1005D0002904609334017093350180933601909320
:1005E000370120E030E040EA50E40E94410520E07D
:1005F00030E040E85AE30E94410560933001709377
:100600003101809332019093330180E00E947101A7
:100610009FEF21EE84E0915020408040E1F700C040
:10062000000031CF5058BB27AA270E942A030C9400
:100630007B040E946D0438F00E94740420F039F4A9
:100640009F3F19F426F40C946A040EF4E095E7FB3E
:100650000C946404E92F0E948C0458F3BA176207C3
:1006600073078407950720F079F4A6F50C94AE047F
:100670000EF4E0950B2EBA2FA02D0B01B9019001BD
:100680000C01CA01A0011124FF27591B99F0593F01
:1006900050F4503E68F11A16F040A22F232F342F49
:1006A0004427585FF3CF469537952795A795F04097
:1006B0005395C9F77EF41F16BA0B620B730B840BAC
:1006C000BAF09150A1F0FF0FBB1F661F771F881F64
:1006D000C2F70EC0BA0F621F731F841F48F48795BC
:1006E00077956795B795F7959E3F08F0B0CF9395AE
:1006F000880F08F09927EE0F9795879508950E9427
:1007000093030C947B040E94740458F00E946D04BF
:1007100040F029F45F3F29F00C94640451110C94CB
:10072000AF040C946A040E948C0468F39923B1F31B
:10073000552391F3951B550BBB27AA276217730707
:10074000840738F09F5F5F4F220F331F441FAA1F9B
:10075000A9F335D00E2E3AF0E0E832D09150504057
:10076000E695001CCAF72BD0FE2F29D0660F771F05
:10077000881FBB1F261737074807AB07B0E809F0EB
:10078000BB0B802DBF01FF2793585F4F3AF09E3F70
:10079000510578F00C9464040C94AF045F3FE4F3CB
:1007A000983ED4F3869577956795B795F7959F5FB3
:1007B000C9F7880F911D9695879597F90895E1E0FF
:1007C000660F771F881FBB1F621773078407BA075E
:1007D00020F0621B730B840BBA0BEE1F88F7E095B9
:1007E00008950E94F8036894B1110C94AF04089521
:1007F0000E94940488F09F5798F0B92F9927B75119
:10080000B0F0E1F0660F771F881F991F1AF0BA95B4
:10081000C9F714C0B13091F00E94AE04B1E0089560
:100820000C94AE04672F782F8827B85F39F0B93F52
:10083000CCF3869577956795B395D9F73EF4909567
:100840008095709561957F4F8F4F9F4F0895E894E5
:1008500009C097FB3EF490958095709561957F4F08
:100860008F4F9F4F9923A9F0F92F96E9BB279395B6
:10087000F695879577956795B795F111F8CFFAF4C6
:10088000BB0F11F460FF1BC06F5F7F4F8F4F9F4FF7
:1008900016C0882311F096E911C0772321F09EE855
:1008A000872F762F05C0662371F096E8862F70E0BB
:1008B00060E02AF09A95660F771F881FDAF7880F95
:1008C0009695879597F9089597F99F6780E870E066
:1008D00060E008959FEF80EC089500240A941616B6
:1008E000170618060906089500240A94121613061E
:1008F000140605060895092E0394000C11F48823AC
:1009000052F0BB0F40F4BF2B11F460FF04C06F5FC7
:100910007F4F8F4F9F4F089557FD9058440F551F9D
:1009200059F05F3F71F04795880F97FB991F61F071
:100930009F3F79F087950895121613061406551FE8
:10094000F2CF4695F1DF08C0161617061806991F54
:10095000F1CF86957105610508940895E894BB2749
:1009600066277727CB0197F908950E94C50429EDE2
:100970003BE54EED5EE30C94410516F00C94AE059C
:100980000C946A0468940C9464040E949404A8F380
:100990009923C1F3AEF3DF93CF931F930F93FF928D
:1009A000C92FDD2788232AF02197660F771F881F1C
:1009B000DAF720E030E040E85FEB9FE3883920F091
:1009C000803E38F021968F770E941303E8E6F0E02E
:1009D00004C00E941303E5E9F0E00E94BC058B010E
:1009E000BE01EC01FB2E6F5771097595771F880BBF
:1009F000990B0E94290428E132E741E35FE30E945A
:100A00005405AF2D9801AE01FF900F911F91CF912A
:100A1000DF910E942A030C947B04FA01DC01AA0FE7
:100A2000BB1F9B01AC01BF5728F422273327442763
:100A3000507820C0B75190F4AB2F002446953795DD
:100A40002795011CA395D2F3002071F0220F331FCC
:100A5000441FB395DAF30ED00C9412036130710584
:100A6000A0E88A07B94630F49B01AC0166277727D6
:100A700088279078309621F02083318342835383F6
:100A800008950E9454050C947B040E946D0438F074
:100A90000E94740420F0952311F00C9464040C94CB
:100AA0006A0411240C94AF040E948C0470F3959F87
:100AB000C1F3950F50E0551F629FF001729FBB2755
:100AC000F00DB11D639FAA27F00DB11DAA1F649FF1
:100AD0006627B00DA11D661F829F2227B00DA11DA4
:100AE000621F739FB00DA11D621F839FA00D611D2A
:100AF000221F749F3327A00D611D231F849F600D4B
:100B0000211D822F762F6A2F11249F5750409AF073
:100B1000F1F088234AF0EE0FFF1FBB1F661F771FFF
:100B2000881F91505040A9F79E3F510580F00C94CA
:100B300064040C94AF045F3FE4F3983ED4F38695CD
:100B400077956795B795F795E7959F5FC1F7FE2B6A
:100B5000880F911D9695879597F908959F3F31F0DD
:100B6000915020F4879577956795B795880F911DDB
:100B70009695879597F90895DF93CF931F930F93D9
:100B8000FF92EF92DF927B018C01689406C0DA2E0F
:100B9000EF010E945405FE01E894A591259135913D
:100BA00045915591A6F3EF010E942A03FE0197019A
:100BB000A801DA9469F7DF90EF90FF900F911F91F1
:100BC000CF91DF91089597FB072E16F4009407D07C
:100BD00077FD09D00E94F70507FC05D03EF49095FB
:100BE00081959F4F0895709561957F4F0895AA1B39
:100BF000BB1B51E107C0AA1FBB1FA617B70710F008
:100C0000A61BB70B881F991F5A95A9F78095909539
:100C1000BC01CD0108950F931F93CF93DF93869F5F
:100C20008001879F100D969F100D1124C8010E940E
:100C30002706EC01009729F0A80160E070E00E940F
:100C40004807CE01DF91CF911F910F9108950F9327
:100C50001F93CF93DF938230910510F482E090E0F0
:100C6000E0914A01F0914B0120E030E0A0E0B0E0DB
:100C7000309719F14081518102811381481759073A
:100C8000C8F08417950769F4109731F012960C9309
:100C9000129713961C9327C000934A0110934B019F
:100CA00022C02115310519F04217530718F49A0193
:100CB000BD01EF01DF01F801DBCF21153105F9F0AE
:100CC000281B390B2430310580F48A819B81611502
:100CD000710521F0FB019383828304C090934B0143
:100CE00080934A01FE01329644C0FE01E20FF31FD9
:100CF0008193919322503109398328833AC02091FE
:100D0000480130914901232B41F420910201309197
:100D10000301309349012093480120910001309153
:100D200001012115310541F42DB73EB74091040171
:100D300050910501241B350BE0914801F0914901C8
:100D4000E217F307A0F42E1B3F0B2817390778F0A2
:100D5000AC014E5F5F4F2417350748F04E0F5F1F01
:100D600050934901409348018193919302C0E0E080
:100D7000F0E0CF01DF91CF911F910F910895CF93B4
:100D8000DF93009709F481C0FC013297138212822D
:100D9000A0914A01B0914B01109781F420813181DB
:100DA000820F931F2091480130914901281739077C
:100DB00051F5F0934901E093480167C0ED0120E04F
:100DC00030E0CE17DF0740F44A815B819E01411578
:100DD0005105F1F0EA01F5CFD383C28340815181FF
:100DE000840F951FC817D90759F488819981840FFA
:100DF000951F0296918380838A819B81938382834E
:100E00002115310529F4F0934B01E0934A013DC0CF
:100E1000E901FB83EA8349915991C40FD51FEC176F
:100E2000FD0761F480819181840F951F0296E9018D
:100E300099838883828193819B838A83E0E0F0E0B9
:100E400012968D919C911397009719F0FD01DC018A
:100E5000F7CF8D919C9111979D012E5F3F4F820F8F
:100E6000931F20914801309149012817390769F4EF
:100E7000309729F410924B0110924A0102C013825C
:100E80001282B0934901A0934801DF91CF91089558
:100E9000DC0101C06D9341505040E0F70895F89493
:020EA000FFCF82
:100EA20000004C0120004144433A20004469656738
:100EB2006F2043657276616E7465735F0056494EAA
:0A0EC2003A2020202020202000000C
:00000001FF
