:100000000C9434000C9451000C9451000C94510049
:100010000C9451000C9451000C9451000C9451001C
:100020000C9451000C9451000C9451000C9451000C
:100030000C9451000C9451000C9451000C945100FC
:100040000C9451000C9451000C9451000C945100EC
:100050000C9451000C9451000C9451000C945100DC
:100060000C9451000C94510011241FBECFEFD8E026
:10007000DEBFCDBF11E0A0E0B1E0E6E3F1E002C0F9
:1000800005900D92A430B107D9F721E0A4E0B1E0CA
:1000900001C01D92A830B207E1F70E9453000C94F2
:1000A00099000C9400008FEF84B98AB981E090E048
:1000B000909307018093060133C0E2E0F1E0808174
:1000C00085B9A0E0B1E08C918BB92FEF89E698E17A
:1000D000215080409040E1F700C000008C9185B92C
:1000E00080818BB92FEF89E698E1215080409040C4
:1000F000E1F700C00000E4E0F1E0808185B9808193
:100100008BB98FE891E00197F1F700C00000809172
:1001100006019091070101969093070180930601D3
:1001200080910601909107018F3F910531F22CF2E9
:06013000BDCFF894FFCFE3
:040136005500AA00C6
:00000001FF
