S010000031325F55534152542E73726563C3
S11300000C9434000C9446000C9446000C94460066
S11300100C9446000C9446000C9446000C94460044
S11300200C9446000C9446000C9446000C94460034
S11300300C9446000C9446000C9446000C94460024
S11300400C9446000C9446000C9446000C94460014
S11300500C9446000C9446000C9446000C94460004
S11300600C9446000C94460011241FBECFEFD8E038
S1130070DEBFCDBF21E0A0E0B1E001C01D92A13000
S1130080B207E1F70E94DB000C941F010C940000FE
S1130090982F907F9695969595B995B19E7F95B931
S11300A095B1926095B9EFE9FFE03197F1F700C09F
S11300B0000095B19D7F95B9EFE3FCE93197F1F725
S11300C000C0000090E0880F991F880F991F8C735F
S11300D085B985B18E7F85B985B1826085B98FE98F
S11300E09FE00197F1F700C0000085B18D7F85B9CD
S11300F0EFE3FCE93197F1F700C00000089582E0D6
S11301000E94480088E20E9448008EE00E94480055
S113011086E00E94480081E00E94480080E80E9436
S113012048000895982F907F9695969595B995B126
S1130130936095B9EFE9FFE03197F1F700C0000053
S113014095B19D7F95B995B19E7F95B9EFE3FCE993
S11301503197F1F700C0000090E0880F991F880FD5
S1130160991F8C7385B985B1836085B98FE99FE048
S11301700197F1F700C0000085B18D7F85B985B185
S11301808E7F85B9EFE3FCE93197F1F700C00000F9
S1130190089580680E94480008959091C00095FFDA
S11301A0FCCF8093C60008958091C0008823E4F7B3
S11301B08091C6000895F894E0ECF0E0108280810C
S11301C08083E1ECF0E088E1808380818083E2EC4D
S11301D0F0E010828081866080831092C50087E6FB
S11301E08093C4008FEF84B987B918B878940E94BB
S11301F07F000E94D400809300012FEF81EE94E0F1
S1130200215080409040E1F700C00000809100013F
S11302100E94CD00809100018A3039F080E00E9474
S1130220C900809100010E9492002FEF81EE94E0BA
S1130230215080409040E1F700C00000DACFF894EC
S1050240FFCFEA
S9030000FC
