S0200000315F506172706164656F5F6C65645F6C6565724461746F732E73726563B2
S11300000C9434000C9446000C9446000C94460066
S11300100C9446000C9446000C9446000C94460044
S11300200C9446000C9446000C9446000C94460034
S11300300C9446000C9446000C9446000C94460024
S11300400C9446000C9446000C9446000C94460014
S11300500C9446000C9446000C9446000C94460004
S11300600C9446000C94460011241FBECFEFD8E038
S1130070DEBFCDBF21E0A0E0B1E001C01D92A230FF
S1130080B207E1F70E9448000C9459000C94000058
S113009017B88FEF8AB988B986B1282F30E030932A
S11300A0010120930001000000008BB90000000052
S10900B0F3CFF894FFCF2A
S9030000FC
