:100000000C9434000C943E000C943E000C943E0082
:100010000C943E000C943E000C943E000C943E0068
:100020000C943E000C943E000C943E000C943E0058
:100030000C943E000C943E000C943E000C943E0048
:100040000C943E000C943E000C943E000C943E0038
:100050000C943E000C943E000C943E000C943E0028
:100060000C943E000C943E0011241FBECFEFD8E04C
:10007000DEBFCDBF0E9440000C949E000C94000097
:10008000F89488E68AB98EE084B983E883BD84B5A4
:10009000806884BDA0E8B0E08C9180688C93E0EB30
:1000A000F0E08081806C808384B5806384BD8C9116
:1000B00080638C9380818063808384B5836084BDFA
:1000C0008C9181608C9380818260808385B585600E
:1000D00085BDE1E8F0E0808185608083A1EBB0E040
:1000E0008C9187608C9385B5886085BD80818860A0
:1000F0008083EEE6F0E0808186608083EFE6F0E0CA
:10010000808186608083E0E7F0E080818660808384
:100110008EE187BD88E188BD81E49FE090938900EE
:100120008093880080EF90E390938B0080938A0007
:100130008FEF8093B30013BC7894FFCFF894FFCF78
:00000001FF
