:100000000C9434000C9459020C94A6020C94F30244
:100010000C9451000C9451000C9451000C9451001C
:100020000C9451000C9451000C9451000C9451000C
:100030000C9451000C9451000C9451000C945100FC
:100040000C9451000C9451000C9451000C945100EC
:100050000C9451000C9451000C9451000C945100DC
:100060000C9451000C94510011241FBECFEFD8E026
:10007000DEBFCDBF11E0A0E0B1E0E2E3F7E002C0F7
:1000800005900D92A036B107D9F721E0A0E6B1E0C6
:1000900001C01D92A236B207E1F70E9440030C9402
:1000A00097030C940000982F907F9695969598B999
:1000B00098B19E7F98B998B1926098B9EFE9FFE046
:1000C0003197F1F700C0000098B19D7F98B9EFE338
:1000D000FCE93197F1F700C0000090E0880F991F0C
:1000E000880F991F8C7388B988B18E7F88B988B1C1
:1000F000826088B98FE99FE00197F1F700C00000A6
:1001000088B18D7F88B9EFE3FCE93197F1F700C042
:100110000000089582E00E94530088E20E9453008C
:100120008EE00E94530086E00E94530081E00E940E
:10013000530080E80E9453000895982F907F969571
:10014000969598B998B1936098B9EFE9FFE0319727
:10015000F1F700C0000098B19D7F98B998B19E7FDB
:1001600098B9EFE3FCE93197F1F700C0000090E0A7
:10017000880F991F880F991F8C7388B988B1836085
:1001800088B98FE99FE00197F1F700C0000088B1BE
:100190008D7F88B988B18E7F88B9EFE3FCE931970C
:1001A000F1F700C0000008950F931F93CF93DF93E2
:1001B0008C01C0E0D0E003C00E949D002196F801B0
:1001C000EC0FFD1F80818111F7CFDF91CF911F913F
:1001D0000F91089580E40E9453008FE99FE00197FA
:1001E000F1F700C0000080E00E949D008FE99FE0D1
:1001F0000197F1F700C000008FE10E949D008FE998
:100200009FE00197F1F700C0000081E10E949D008E
:100210008FE99FE00197F1F700C000008BE10E9499
:100220009D008FE99FE00197F1F700C000008EE08C
:100230000E949D008FE99FE00197F1F700C0000048
:1002400084E00E949D008FE99FE00197F1F700C0D4
:10025000000080E00E949D008FE99FE00197F1F788
:1002600000C0000080E00E949D008FE99FE00197A0
:10027000F1F700C00000089588E40E9453008FE960
:100280009FE00197F1F700C0000080E00E949D0010
:100290008FE99FE00197F1F700C000008AE00E941B
:1002A0009D008FE99FE00197F1F700C000008AE010
:1002B0000E949D008FE99FE00197F1F700C00000C8
:1002C0008AE00E949D008FE99FE00197F1F700C04E
:1002D000000080E00E949D008FE99FE00197F1F708
:1002E00000C0000081E10E949D008FE99FE001971E
:1002F000F1F700C000008EE00E949D008FE99FE0B2
:100300000197F1F700C0000080E00E949D008FE996
:100310009FE00197F1F700C00000089580E50E947A
:1003200053008FE99FE00197F1F700C0000080E0E3
:100330000E949D008FE99FE00197F1F700C0000047
:1003400080E00E949D008FE99FE00197F1F700C0D7
:1003500000008BE10E949D008FE99FE00197F1F77B
:1003600000C0000085E10E949D008FE99FE0019799
:10037000F1F700C0000081E10E949D008FE99FE03D
:100380000197F1F700C000008AE00E949D008FE90C
:100390009FE00197F1F700C0000084E00E949D00FB
:1003A0008FE99FE00197F1F700C0000080E00E9414
:1003B0009D008FE99FE00197F1F700C000000895CC
:1003C00088E50E9453008FE99FE00197F1F700C094
:1003D00000008FE10E949D008FE99FE00197F1F7F7
:1003E00000C0000085E10E949D008FE99FE0019719
:1003F000F1F700C000008FE10E949D008FE99FE0AF
:100400000197F1F700C000008FE10E949D008FE985
:100410009FE00197F1F700C000008FE10E949D006E
:100420008FE99FE00197F1F700C000008AE00E9489
:100430009D008FE99FE00197F1F700C000008AE07E
:100440000E949D008FE99FE00197F1F700C0000036
:100450008BE10E949D008FE99FE00197F1F700C0BA
:100460000000089581E00E945300089582E00E94F8
:100470005300089580680E9453000895806C0E9484
:10048000530008950E948A000E9432020E943602A0
:1004900080E00E943A0284E091E00E94D40080E073
:1004A0000E943E0281E191E00E94D4000E94360247
:1004B00008951F920F920FB60F9211242F933F931E
:1004C0004F935F936F937F938F939F93AF93BF935C
:1004D000EF93FF932FEF8EE994E2215080409040FC
:1004E000E1F700C000000E948A000E9432020E94D0
:1004F000360280E00E943A028FE191E00E94D4002F
:1005000080E00E943E028DE291E00E94D40083E0F0
:100510000E949D002FEF89E698E121508040904095
:10052000E1F700C000000E944202FF91EF91BF91ED
:10053000AF919F918F917F916F915F914F913F917B
:100540002F910F900FBE0F901F9018951F920F9232
:100550000FB60F9211242F933F934F935F936F9396
:100560007F938F939F93AF93BF93EF93FF932FEF5F
:100570008EE994E2215080409040E1F700C00000F5
:100580000E948A000E9432020E94360280E00E948D
:100590003A0288E391E00E94D40080E00E943E028B
:1005A0008DE291E00E94D40081E00E949D002FEF37
:1005B00089E698E1215080409040E1F700C00000BA
:1005C0000E944202FF91EF91BF91AF919F918F9155
:1005D0007F916F915F914F913F912F910F900FBE3F
:1005E0000F901F9018951F920F920FB60F92112423
:1005F0002F933F934F935F936F937F938F939F932B
:10060000AF93BF93EF93FF932FEF8EE994E22150C6
:1006100080409040E1F700C000000E948A000E94E4
:1006200032020E94360280E00E943A0289E491E0A0
:100630000E94D40080E00E943E0281E591E00E9489
:10064000D40080E00E949D002FEF89E698E12150C0
:1006500080409040E1F700C000000E944202FF91FC
:10066000EF91BF91AF919F918F917F916F915F912A
:100670004F913F912F910F900FBE0F901F901895A3
:10068000F8948CEF84B98FEF87B91AB88DB3816075
:100690008DBB8DB382608DBBE9E6F0E08081836025
:1006A000808380818C608083E8E6F0E080818160D7
:1006B0008083EBE6F0E080818360808378940E9401
:1006C0008A000E94EA000E943C010E948E010E9462
:1006D000E0010E9432020E94360280E00E943A024B
:1006E0000E9442028091020185B92FEF84E39CE0D1
:1006F000215080409040E1F700C00000809100014F
:1007000085B92FEF84E39CE0215080409040E1F7D1
:1007100000C000008091600185B92FEF84E39CE068
:10072000215080409040E1F700C00000DBCFF894FA
:02073000FFCFF9
:10073200EB00D70050726573696F6E6120756E6150
:1007420000496E74657272757063696F6E20004E37
:100752006F6D6272653A20446965676F004361722A
:1007620061637465723A20004170656C6C3A204393
:10077200657276616E7465730049726F6E6D616E3B
:100782000052656163746F72206172633A200000E7
:00000001FF
