S0290000375F54656D706F72697A61646F725F706F725F646573626F7264616D69656E746F2E7372656386
S11300000C9434000C9451000C9451000C94510045
S11300100C9451000C9451000C9451000C94510018
S11300200C9451000C9451000C9451000C94510008
S11300300C9451000C9451000C9451000C945100F8
S11300400C940C010C9451000C9451000C9451002C
S11300500C9451000C9451000C9451000C945100D8
S11300600C9451000C94510011241FBECFEFD8E022
S1130070DEBFCDBF11E0A0E0B1E0EEE3F9E002C0E5
S113008005900D92A232B107D9F723E0A2E2B1E0C4
S113009001C01D92AA31B207E1F70E9430010C940D
S11300A09D040C940000982F907F9695969598B98E
S11300B098B19E7F98B998B1926098B9EFE9FFE042
S11300C03197F1F700C0000098B19D7F98B9EFE334
S11300D0FCE93197F1F700C0000090E0880F991F08
S11300E0880F991F8C7388B988B18E7F88B988B1BD
S11300F0826088B98FE99FE00197F1F700C00000A2
S113010088B18D7F88B9EFE3FCE93197F1F700C03E
S11301100000089582E00E94530088E20E94530088
S11301208EE00E94530086E00E94530081E00E940A
S1130130530080E80E9453000895982F907F96956D
S1130140969598B998B1936098B9EFE9FFE0319723
S1130150F1F700C0000098B19D7F98B998B19E7FD7
S113016098B9EFE3FCE93197F1F700C0000090E0A3
S1130170880F991F880F991F8C7388B988B1836081
S113018088B98FE99FE00197F1F700C0000088B1BA
S11301908D7F88B988B18E7F88B9EFE3FCE9319708
S11301A0F1F700C0000008950F931F93CF93DF93DE
S11301B08C01C0E0D0E003C00E949D002196F801AC
S11301C0EC0FFD1F80818111F7CFDF91CF911F913B
S11301D00F91089581E00E945300089582E00E94E7
S11301E05300089580E10E945300089580680E949E
S11301F053000895806C0E94530008950E948A0061
S11302000E94EA000E94EE0080E00E94F60082E074
S113021091E00E94D40008951F920F920FB60F929E
S113022011242F938F939F932FEF89E698E1215008
S113023080409040E1F700C000008FEF86BD8091C0
S11302402401909125010196909325018093240126
S11302509F918F912F910F900FBE0F901F90189523
S1130260F8948FEF84B987B91AB893E893BD95B51C
S1130270976095BDEEE6F0E090819160908386BD35
S113028013BC78940E94FE00809122019091230176
S1130290892BE1F42FEF80E792E0215080409040D9
S11302A0E1F700C000008091000190910101880FE6
S11302B0991F90930101809300018034910531F4DA
S11302C081E090E0909323018093220180912201A8
S11302D090912301019701F5809100019091010112
S11302E099230CF401969595879590930101809339
S11302F000012FEF80E792E0215080409040E1F729
S113030000C000008091000190910101019721F447
S113031010922301109222018091000185B980E09E
S11303200E94FA0083E191E00E94D40080912501AB
S11303308F93809124018F938FE191E09F938F930A
S113034086E291E09F938F930E94B30186E291E04D
S11303500E94D4000E94F2000F900F900F900F9013
S11303600F900F9091CFAEE0B0E0E9EBF1E00C9488
S113037074040D891E8986E08C831A8309838FEFA8
S11303809FE79E838D83AE01475E5F4F6F89788DB3
S1130390CE0101960E94D501EF81F885E00FF11F8F
S11303A010822E96E4E00C949004ABE0B0E0EBED08
S11303B0F1E00C9466046C017B018A01FC01178254
S11303C01682838181FFCCC1CE0101963C01F601E6
S11303D09381F70193FD859193FF81917F01882398
S11303E009F4BAC1853239F493FD859193FF819163
S11303F07F01853229F4B60190E00E94CC03E7CF57
S1130400912C212C312CFFE1F315D8F08B3279F0AB
S113041038F4803279F08332A1F4232D20611DC099
S11304208D3261F0803369F4232D216016C0832D51
S11304308260382EE32DE4603E2E2AC0F32DF8604E
S11304401DC037FC2DC020ED280F2A3040F08E321D
S1130450B9F436FC81C1232D2064322E19C036FE36
S113046006C08AE0989E200D1124922E11C0EAE065
S11304702E9E200D1124222EF32DF0623F2E08C053
S11304808C3621F4832D8068382E02C0883641F4DE
S1130490F70193FD859193FF81917F018111B3CF82
S11304A0982F9F7D9554933028F40C5F1F4F9FE342
S11304B099830DC0833631F0833771F0833509F0A9
S11304C059C021C0F801808189830E5F1F4F8824A1
S11304D08394912C530113C02801F2E04F0E511C58
S11304E0F801A080B18036FE03C0692D70E002C01F
S11304F06FEF7FEFC5010E94C1034C018201F32D10
S1130500FF773F2E16C0280122E0420E511CF8014D
S1130510A080B18036FE03C0692D70E002C06FEF89
S11305207FEFC5010E94B6034C01F32DF0683F2E06
S1130530820133FC1BC0822D90E088169906B0F42A
S1130540B60180E290E00E94CC032A94F4CFF50136
S113055037FC859137FE81915F01B60190E00E94DE
S1130560CC0321102A9421E0821A91088114910469
S113057071F7E8C0843611F0893641F5F80137FE89
S113058007C060817181828193810C5F1F4F08C015
S113059060817181072E000C880B990B0E5F1F4F31
S11305A0F32DFF763F2E97FF09C0909580957095A7
S11305B061957F4F8F4F9F4FF0683F2E2AE030E0C8
S11305C0A3010E940804882E861845C0853731F49B
S11305D0232D2F7EB22E2AE030E025C0932D997F63
S11305E0B92E8F36C1F018F4883579F0B5C080374C
S11305F019F0883721F0B0C0E92FE061BE2EB4FEB7
S11306000DC0FB2DF460BF2E09C034FE0AC0292F93
S11306102660B22E06C028E030E005C020E130E0BC
S113062002C020E132E0F801B7FE07C060817181A9
S1130630828193810C5F1F4F06C06081718180E0CD
S113064090E00E5F1F4FA3010E940804882E8618B5
S1130650FB2DFF773F2E36FE0DC0232D2E7FA22EBD
S1130660891458F434FE0BC032FC09C0832D8E7EED
S1130670A82E05C0B82CA32C03C0B82C01C0B92CDB
S1130680A4FE0FC0FE01E80DF11D8081803321F42A
S11306909A2D997EA92E09C0A2FE06C0B394B394E4
S11306A004C08A2D867809F0B394A3FC11C0A0FE7F
S11306B006C0B21488F4280C922C9B180EC0B214F5
S11306C060F4B60180E290E00E94CC03B394F7CFCB
S11306D0B21418F42B1802C0982C212CA4FE10C0BC
S11306E0B60180E390E00E94CC03A2FE17C0A1FCF7
S11306F003C088E790E002C088E590E0B6010CC032
S11307008A2D867859F0A1FE02C08BE201C080E2F6
S1130710A7FC8DE2B60190E00E94CC03891438F462
S1130720B60180E390E00E94CC039A94F7CF8A94B8
S1130730F301E80DF11D8081B60190E00E94CC0325
S11307408110F5CF222009F442CEB60180E290E078
S11307500E94CC032A94F6CFF6018681978102C0C9
S11307608FEF9FEF2B96E2E10C948204FC0105903D
S1130770615070400110D8F7809590958E0F9F1F9F
S11307800895FC016150704001900110D8F78095E4
S113079090958E0F9F1F08950F931F93CF93DF9310
S11307A0FB01238121FD03C08FEF9FEF2CC022FFAB
S11307B016C046815781248135814217530744F47A
S11307C0A081B1819D012F5F3F4F318320838C93A2
S11307D0268137812F5F3F4F3783268314C08B01D7
S11307E0EC01FB010084F185E02D0995892BE1F6EC
S11307F0D80116968D919C911797019617969C9304
S11308008E931697CE01DF91CF911F910F9108958A
S1130810FA01AA27283051F1203181F1E8946F932D
S11308206E7F6E5F7F4F8F4F9F4FAF4FB1E03ED0D3
S1130830B4E03CD0670F781F891F9A1FA11D680F71
S1130840791F8A1F911DA11D6A0F711D811D911DA4
S1130850A11D20D009F468943F912AE0269F112419
S11308603019305D3193DEF6CF010895462F47707D
S1130870405D4193B3E00FD0C9F7F6CF462F4F70D8
S1130880405D4A3318F0495D31FD4052419302D036
S1130890A9F7EACFB4E0A6959795879577956795DC
S11308A0BA95C9F700976105710508959B01AC01DC
S11308B00A2E06945795479537952795BA95C9F703
S11308C0620F731F841F951FA01D08952F923F92DE
S11308D04F925F926F927F928F929F92AF92BF924C
S11308E0CF92DF92EF92FF920F931F93CF93DF93F8
S11308F0CDB7DEB7CA1BDB0B0FB6F894DEBF0FBE55
S1130900CDBF09942A88398848885F846E847D84A1
S11309108C849B84AA84B984C884DF80EE80FD80A3
S11309200C811B81AA81B981CE0FD11D0FB6F89419
S1110930DEBF0FBECDBFED010895F894FFCFDA
S113093E0100456C202320646520636C69656E7428
S113094E657300726563696269646F733A2000258A
S105095E64002F
S9030000FC
