S01F0000375F506172706164656F5F4C65645F446573626F7264652E7372656348
S11300000C9434000C9451000C9451000C94510045
S11300100C9451000C9451000C9451000C94510018
S11300200C9451000C94C8000C9451000C94510091
S11300300C9451000C94B0000C9451000C94510099
S11300400C9484000C9451000C9451000C945100B5
S11300500C9451000C9451000C9451000C945100D8
S11300600C9451000C94510011241FBECFEFD8E022
S1130070DEBFCDBF11E0A0E0B1E0EEEEF1E002C0E2
S113008005900D92A430B107D9F721E0A4E0B1E0C6
S113009001C01D92A830B207E1F70E9453000C94EE
S11300A0F5000C940000F89481E084B987B98AB90A
S11300B083E883BD85B5856085BDE1E8F0E0808196
S11300C085608083E1EBF0E0808187608083EEE6E9
S11300D0F0E0808181608083EFE6F0E080818160E0
S11300E08083E0E7F0E08081816080838BE086BDDF
S11300F087EF92EC909385008093840085E0809351
S1130100B20013BC7894FFCF1F920F920FB60F92D8
S113011011242F933F938F939F938BE086BD8091FF
S113012006019091070101969093070180930601BF
S113013020910201309103018217930744F095B195
S113014081E0892785B910920701109206019F91D9
S11301508F913F912F910F900FBE0F901F90189584
S11301601F920F920FB60F9211248F939F9387EFD4
S113017092EC909385008093840098B181E0892764
S113018088B99F918F910F900FBE0F901F90189573
S11301901F920F920FB60F9211242F933F938F93B8
S11301A09F9385E08093B2008091040190910501B2
S11301B001969093050180930401209100013091F0
S11301C001018217930744F09BB181E089278BB921
S11301D010920501109204019F918F913F912F91EC
S11101E00F900FBE0F901F901895F894FFCF4C
S10701EE7D0010007C
S9030000FC
