S00D0000335F4C43442E73726563B2
S11300000C9434000C9449000C9449000C9449005D
S11300100C9449000C9449000C9449000C94490038
S11300200C9449000C9449000C9449000C94490028
S11300300C9449000C9449000C9449000C94490018
S11300400C9449000C9449000C9449000C94490008
S11300500C9449000C9449000C9449000C944900F8
S11300600C9449000C94490011241FBECFEFD8E032
S1130070DEBFCDBF11E0A0E0B1E0EAE9F5E002C0E7
S113008005900D92A032B107D9F70E947D020C941D
S1130090CB020C940000282F207F30E03595279563
S11300A03595279528B998B19E7F98B998B19260F3
S11300B098B9EFE9FFE03197F1F700C0000098B17B
S11300C09D7F98B9EFE3FCE93197F1F700C0000098
S11300D090E0880F991F880F991F8C7388B988B195
S11300E08E7F88B988B1826088B98FE99FE00197D3
S11300F0F1F700C0000088B18D7F88B9EFE3FCE917
S11301003197F1F700C00000089582E00E944B008F
S113011088E20E944B008EE00E944B0086E00E9421
S11301204B0081E00E944B0080E80E944B00089540
S1130130282F207F30E0359527953595279528B9C8
S113014098B1936098B9EFE9FFE03197F1F700C0F7
S1130150000098B19D7F98B998B19E7F98B9EFE35C
S1130160FCE93197F1F700C0000090E0880F991F77
S1130170880F991F8C7388B988B1836088B98FE917
S11301809FE00197F1F700C0000088B18D7F88B926
S113019088B18E7F88B9EFE3FCE93197F1F700C0AD
S11301A0000008950F931F93CF93DF938C01C0E059
S11301B0D0E0F801EC0FFD1F8081882321F00E941C
S11301C098002196F6CFDF91CF911F910F9108955A
S11301D080E40E944B008FE99FE00197F1F700C093
S11301E0000080E00E9498008FE99FE00197F1F7FA
S11301F000C000008FE10E9498008FE99FE0019702
S1130200F1F700C0000081E10E9498008FE99FE0AF
S11302100197F1F700C000008BE10E9498008FE97C
S11302209FE00197F1F700C000008EE00E94980063
S11302308FE99FE00197F1F700C0000084E00E947D
S113024098008FE99FE00197F1F700C0000080E07B
S11302500E9498008FE99FE00197F1F700C0000029
S113026080E00E9498008FE99FE00197F1F700C0B9
S11302700000089588E40E944B008FE99FE00197F5
S1130280F1F700C0000080E00E9498008FE99FE031
S11302900197F1F700C000008AE00E9498008FE9FE
S11302A09FE00197F1F700C000008AE00E949800E7
S11302B08FE99FE00197F1F700C000008AE00E94F7
S11302C098008FE99FE00197F1F700C0000080E0FB
S11302D00E9498008FE99FE00197F1F700C00000A9
S11302E081E10E9498008FE99FE00197F1F700C037
S11302F000008EE00E9498008FE99FE00197F1F7DB
S113030000C0000080E00E9498008FE99FE0019700
S1130310F1F700C00000089580E50E944B008FE9CA
S11303209FE00197F1F700C0000080E00E94980070
S11303308FE99FE00197F1F700C0000080E00E9480
S113034098008FE99FE00197F1F700C000008BE16E
S11303500E9498008FE99FE00197F1F700C0000028
S113036085E10E9498008FE99FE00197F1F700C0B2
S1130370000081E10E9498008FE99FE00197F1F766
S113038000C000008AE00E9498008FE99FE0019776
S1130390F1F700C0000084E00E9498008FE99FE01C
S11303A00197F1F700C0000080E00E9498008FE9F7
S11303B09FE00197F1F700C00000089588E50E94CE
S11303C04B008FE99FE00197F1F700C000008FE137
S11303D00E9498008FE99FE00197F1F700C00000A8
S11303E085E10E9498008FE99FE00197F1F700C032
S11303F000008FE10E9498008FE99FE00197F1F7D8
S113040000C000008FE10E9498008FE99FE00197EF
S1130410F1F700C000008FE10E9498008FE99FE08F
S11304200197F1F700C000008AE00E9498008FE96C
S11304309FE00197F1F700C000008AE00E94980055
S11304408FE99FE00197F1F700C000008BE10E9463
S113045098008FE99FE00197F1F700C0000008952C
S113046081E00E944B00089582E00E944B000895B1
S113047080E10E944B00089580680E944B0008951B
S1130480806C0E944B00089580E00E9498000E94B6
S113049038022FEF89E698E1215080409040E1F73F
S11304A000C0000081E00E9498000E9438022FEFF3
S11304B089E698E1215080409040E1F700C00000B7
S11304C082E00E9498000E9438022FEF89E698E1AA
S11304D0215080409040E1F700C0000083E00E947A
S11304E098000E9438022FEF89E698E1215080405D
S11304F09040E1F700C0000008958FEF87B90E9493
S113050085000E9430020E94E8002FEF81EE94E003
S1130510215080409040E1F700C000000E943A0161
S11305202FEF81EE94E0215080409040E1F700C02D
S113053000000E948C012FEF81EE94E02150804056
S11305409040E1F700C000000E94DE012FEF81EE31
S113055094E0215080409040E1F700C000000E94E8
S113056030020E94340280E00E943C0280E091E06C
S11305700E94D20080E00E94400280E191E00E944B
S1130580D20080E20E9498008BE191E00E94D200A8
S10D05900E944402FDCFF894FFCF4F
S113059A446965676F2043657276616E746573009A
S11305AA3230313533343030343200344D5637003A
S9030000FC
