S01E0000385F4672656375656E6369615F73656E616C5F4354432E73726563CF
S11300000C9434000C9451000C9451000C94510045
S11300100C9451000C9451000C9451000C94C000A9
S11300200C9451000C9451000C9451000C94AE00AB
S11300300C9451000C9451000C949C000C945100AD
S11300400C9451000C9451000C9451000C945100E8
S11300500C9451000C9451000C9451000C945100D8
S11300600C9451000C94510011241FBECFEFD8E022
S1130070DEBFCDBF11E0A0E0B1E0E8EDF1E002C0E9
S113008005900D92A230B107D9F721E0A2E0B1E0CA
S113009001C01D92A430B207E1F70E9453000C94F2
S11300A0EA000C940000F89481E084B987B98AB915
S11300B083E883BD84B5806C84BDA0E8B0E08C91F6
S11300C0806C8C93E0EBF0E08081806C808384B55D
S11300D0826084BD8C918C9380818260808385B59D
S11300E0836085BDE1E8F0E0808184608083A1EBDA
S11300F0B0E08C9187608C93808188608083EEE689
S1130100F0E0808182608083EFE6F0E080818260AD
S11301108083E0E7F0E08081826080838CE787BDA4
S113012081E19AE790938900809388008FEF809310
S1130130B30013BC7894FFCF1F920F920FB60F92A7
S113014011248F939F9395B181E0892785B99F915D
S11301508F910F900FBE0F901F9018951F920F92C2
S11301600FB60F9211248F939F9398B181E0892742
S113017088B99F918F910F900FBE0F901F90189583
S11301801F920F920FB60F9211242F933F938F93C8
S11301909F93809102019091030101969093030132
S11301A0809302012091000130910101821793078D
S11301B044F09BB181E089278BB91092030110921E
S11301C002019F918F913F912F910F900FBE0F903D
S10B01D01F901895F894FFCF6D
S10501D83E00E3
S9030000FC
