S0200000315F506172706164656F5F6C65645F6F6A6F4369636C6F6E2E73726563B5
S11300000C9434000C9451000C9451000C94510045
S11300100C9451000C9451000C9451000C94510018
S11300200C9451000C9451000C9451000C94510008
S11300300C9451000C9451000C9451000C945100F8
S11300400C9451000C9451000C9451000C945100E8
S11300500C9451000C9451000C9451000C945100D8
S11300600C9451000C94510011241FBECFEFD8E022
S1130070DEBFCDBF11E0A0E0B1E0E8E7F1E002C0EF
S113008005900D92A230B107D9F721E0A2E0B1E0CA
S113009001C01D92A630B207E1F70E9453000C94F0
S11300A0BA000C9400008FEF84B98AB980910001E2
S11300B0909101018130910559F51092050110923A
S11300C004011FC0809100018BB9809100019091BF
S11300D00101880F991F90930101809300012FEF74
S11300E089E698E1215080409040E1F700C000008B
S11300F080910401909105010196909305018093EC
S1130100040180910401909105010897DCF2CECF9F
S1130110803891055CF288E090E09093030180932D
S1130120020120C0809100019091010199230CF4F7
S113013001969595879580930001909301018BB961
S11301402FEF89E698E1215080409040E1F700C00C
S113015000008091020190910301019790930301A3
S113016080930201809102019091030118161906EF
S10B0170CCF29CCFF894FFCF00
S1050178010080
S9030000FC
