:100000000C943E000C945B000C945B000C945B0021
:100010000C945B000C945B000C945B000C945F02EE
:100020000C945B000C945B000C945B000C944D02F0
:100030000C945B000C945B000C945B000C945B00D4
:100040000C945B000C945B000C945B000C945B00C4
:100050000C945B000C945B000C945B000C945B00B4
:100060000C945B000C945B00BE01CB01D801E50150
:10007000F201FF010C0219022602330211241FBEF5
:10008000CFEFD8E0DEBFCDBF11E0A0E0B1E0E6EFFA
:10009000FAE002C005900D92A432B107D9F721E031
:1000A000A4E2B1E001C01D92A233B207E1F70E94C1
:1000B00012010C9479050C940000982F907F96956E
:1000C000969598B998B19E7F98B998B1926098B971
:1000D000EFE9FFE03197F1F700C0000098B19D7F94
:1000E00098B9EFE3FCE93197F1F700C0000090E028
:1000F000880F991F880F991F8C7388B988B18E7FDC
:1001000088B988B1826088B98FE99FE00197F1F7DB
:1001100000C0000088B18D7F88B9EFE3FCE931971A
:10012000F1F700C00000089582E00E945D0088E2BF
:100130000E945D008EE00E945D0086E00E945D00EE
:1001400081E00E945D0080E80E945D000895982F84
:10015000907F9695969598B998B1936098B9EFE984
:10016000FFE03197F1F700C0000098B19D7F98B98A
:1001700098B19E7F98B9EFE3FCE93197F1F700C0A1
:10018000000090E0880F991F880F991F8C7388B921
:1001900088B1836088B98FE99FE00197F1F700C0CB
:1001A000000088B18D7F88B988B18E7F88B9EFE370
:1001B000FCE93197F1F700C0000008950F931F93F9
:1001C000CF93DF938C01C0E0D0E003C00E94A70072
:1001D0002196F801EC0FFD1F80818111F7CFDF918F
:1001E000CF911F910F91089581E00E945D000895C5
:1001F00082E00E945D00089580680E945D0008957D
:10020000806C0E945D0008950E9494000E94F4009A
:100210000E94F80080E00E94FC0088E091E00E94CB
:10022000DE000895F89414B814B881E084B99FEF03
:1002300097B98AB983E883BDA0E8B0E08C91806C5F
:100240008C93E0EBF0E08081806C80838C918C93C8
:10025000808182608083E1E8F0E080818460808337
:10026000A1EBB0E08C9187608C9380818860808363
:10027000EFE6F0E0808182608083E0E7F0E080815B
:1002800082608083209106013091070130938900BC
:10029000209388009093B30013BC78940E940401CB
:1002A00083B190E090932701809326010000000025
:1002B000000080E00E94000187E191E00E94DE00E2
:1002C000809103018F93809102018F938CE191E0E3
:1002D0009F938F9388E291E09F938F930E948F0268
:1002E00088E291E00E94DE008FE191E00E94DE0052
:1002F00080912601909127010F900F900F900F9001
:100300000F900F908032910551F4809104019091EB
:1003100005010196909305018093040122C0409746
:1003200051F480910401909105010197909305018A
:100330008093040116C080910401909105018B30D7
:10034000910539F48AE090E09093050180930401CF
:1003500008C0892B31F481E090E0909305018093EF
:100360000401E0910401F09105013197EA30F105B3
:1003700008F086C0EC5CFF4F0C94890281E090E0AD
:10038000909303018093020181E19AE79093070122
:100390008093060185CF84E690E0909303018093DB
:1003A000020187E391E0909307018093060178CFE3
:1003B00088EC90E090930301809302018BE990E038
:1003C00090930701809306016BCF8CE291E09093AC
:1003D00003018093020187E690E0909307018093E8
:1003E00006015ECF80E991E09093030180930201C2
:1003F0008DE490E0909307018093060151CF88EF40
:1004000091E090930301809302018DE390E090933B
:1004100007018093060144CF88E592E090930301A1
:100420008093020183E390E090930701809306019B
:1004300037CF86EC92E090930301809302018BE228
:1004400090E090930701809306012ACF80ED93E01E
:1004500090930301809302018FE190E09093070154
:10046000809306011DCF80EF93E09093030180936A
:1004700002018EE190E0909307018093060110CF76
:1004800081E090E0909303018093020181E19AE77B
:10049000909307018093060103CF1F920F920FB62E
:1004A0000F9211248F939F9395B181E0892785B98D
:1004B0009F918F910F900FBE0F901F9018951F92D4
:1004C0000F920FB60F9211242F933F938F939F9308
:1004D00080912401909125010196909325018093AC
:1004E000240120910001309101018217930744F00B
:1004F0009BB181E089278BB91092250110922401CC
:100500009F918F913F912F910F900FBE0F901F9051
:100510001895EE0FFF1F0590F491E02D0994AEE0C1
:10052000B0E0E5E9F2E00C9450050D891E8986E003
:100530008C831A8309838FEF9FE79E838D83AE019F
:10054000475E5F4F6F89788DCE0101960E94B102A0
:10055000EF81F885E00FF11F10822E96E4E00C94F5
:100560006C05ABE0B0E0E7EBF2E00C9442056C0107
:100570007B018A01FC0117821682838181FFCCC135
:10058000CE0101963C01F6019381F70193FD85911F
:1005900093FF81917F01882309F4BAC1853239F430
:1005A00093FD859193FF81917F01853229F4B601F6
:1005B00090E00E94A804E7CF912C212C312CFFE180
:1005C000F315D8F08B3279F038F4803279F0833239
:1005D000A1F4232D20611DC08D3261F0803369F4B8
:1005E000232D216016C0832D8260382EE32DE46018
:1005F0003E2E2AC0F32DF8601DC037FC2DC020ED23
:10060000280F2A3040F08E32B9F436FC81C1232DF8
:100610002064322E19C036FE06C08AE0989E200D56
:100620001124922E11C0EAE02E9E200D1124222EBC
:10063000F32DF0623F2E08C08C3621F4832D8068A4
:10064000382E02C0883641F4F70193FD859193FF5F
:1006500081917F018111B3CF982F9F7D9554933065
:1006600028F40C5F1F4F9FE399830DC0833631F050
:10067000833771F0833509F059C021C0F8018081BA
:1006800089830E5F1F4F88248394912C530113C0DC
:100690002801F2E04F0E511CF801A080B18036FE17
:1006A00003C0692D70E002C06FEF7FEFC5010E94AB
:1006B0009D044C018201F32DFF773F2E16C02801C7
:1006C00022E0420E511CF801A080B18036FE03C02A
:1006D000692D70E002C06FEF7FEFC5010E949204A8
:1006E0004C01F32DF0683F2E820133FC1BC0822D9C
:1006F00090E088169906B0F4B60180E290E00E947E
:10070000A8042A94F4CFF50137FC859137FE819136
:100710005F01B60190E00E94A80421102A9421E014
:10072000821A91088114910471F7E8C0843611F09F
:10073000893641F5F80137FE07C0608171818281F9
:1007400093810C5F1F4F08C060817181072E000CE0
:10075000880B990B0E5F1F4FF32DFF763F2E97FFEF
:1007600009C090958095709561957F4F8F4F9F4FF1
:10077000F0683F2E2AE030E0A3010E94E404882EB6
:10078000861845C0853731F4232D2F7EB22E2AE0FE
:1007900030E025C0932D997FB92E8F36C1F018F423
:1007A000883579F0B5C0803719F0883721F0B0C0AE
:1007B000E92FE061BE2EB4FE0DC0FB2DF460BF2E0C
:1007C00009C034FE0AC0292F2660B22E06C028E0D8
:1007D00030E005C020E130E002C020E132E0F80165
:1007E000B7FE07C060817181828193810C5F1F4FCA
:1007F00006C06081718180E090E00E5F1F4FA30111
:100800000E94E404882E8618FB2DFF773F2E36FECB
:100810000DC0232D2E7FA22E891458F434FE0BC058
:1008200032FC09C0832D8E7EA82E05C0B82CA32CC7
:1008300003C0B82C01C0B92CA4FE0FC0FE01E80D06
:10084000F11D8081803321F49A2D997EA92E09C053
:10085000A2FE06C0B394B39404C08A2D867809F032
:10086000B394A3FC11C0A0FE06C0B21488F4280CF7
:10087000922C9B180EC0B21460F4B60180E290E096
:100880000E94A804B394F7CFB21418F42B1802C036
:10089000982C212CA4FE10C0B60180E390E00E94A9
:1008A000A804A2FE17C0A1FC03C088E790E002C024
:1008B00088E590E0B6010CC08A2D867859F0A1FE3B
:1008C00002C08BE201C080E2A7FC8DE2B60190E09D
:1008D0000E94A804891438F4B60180E390E00E94D5
:1008E000A8049A94F7CF8A94F301E80DF11D808152
:1008F000B60190E00E94A8048110F5CF222009F4EF
:1009000042CEB60180E290E00E94A8042A94F6CF7D
:10091000F6018681978102C08FEF9FEF2B96E2E16F
:100920000C945E05FC010590615070400110D8F7F1
:10093000809590958E0F9F1F0895FC016150704027
:1009400001900110D8F7809590958E0F9F1F089504
:100950000F931F93CF93DF93FB01238121FD03C0EE
:100960008FEF9FEF2CC022FF16C046815781248154
:1009700035814217530744F4A081B1819D012F5F57
:100980003F4F318320838C93268137812F5F3F4FE8
:100990003783268314C08B01EC01FB010084F185B1
:1009A000E02D0995892BE1F6D80116968D919C9141
:1009B0001797019617969C938E931697CE01DF9109
:1009C000CF911F910F910895FA01AA27283051F174
:1009D000203181F1E8946F936E7F6E5F7F4F8F4F70
:1009E0009F4FAF4FB1E03ED0B4E03CD0670F781FCF
:1009F000891F9A1FA11D680F791F8A1F911DA11DB4
:100A00006A0F711D811D911DA11D20D009F46894EC
:100A10003F912AE0269F11243019305D3193DEF694
:100A2000CF010895462F4770405D4193B3E00FD04A
:100A3000C9F7F6CF462F4F70405D4A3318F0495D35
:100A400031FD4052419302D0A9F7EACFB4E0A69518
:100A50009795879577956795BA95C9F7009761053A
:100A6000710508959B01AC010A2E06945795479590
:100A700037952795BA95C9F7620F731F841F951F85
:100A8000A01D08952F923F924F925F926F927F9296
:100A90008F929F92AF92BF92CF92DF92EF92FF928E
:100AA0000F931F93CF93DF93CDB7DEB7CA1BDB0B3A
:100AB0000FB6F894DEBF0FBECDBF09942A883988DF
:100AC00048885F846E847D848C849B84AA84B984E6
:100AD000C884DF80EE80FD800C811B81AA81B981F2
:100AE000CE0FD11D0FB6F894DEBF0FBECDBFED0106
:060AF0000895F894FFCF09
:100AF6003E0001000100117A6672656375656E63DA
:100B06006961206C65640064653A200025640020F4
:040B1600487A000019
:00000001FF
