:100000000C9434000C9451000C9451000C94510049
:100010000C9451000C9451000C9451000C94EF007E
:100020000C9451000C9451000C9451000C94C50098
:100030000C9451000C9451000C949B000C945100B2
:100040000C9451000C9451000C9451000C945100EC
:100050000C9451000C9451000C9451000C945100DC
:100060000C9451000C94510011241FBECFEFD8E026
:10007000DEBFCDBF11E0A0E0B1E0E6E3F2E002C0F8
:1000800005900D92A630B107D9F721E0A6E0B1E0C6
:1000900001C01D92AC30B207E1F70E9453000C94EE
:1000A00019010C940000F89481E084B987B98AB9E9
:1000B00083E883BD84B5806C84BDA0E8B0E08C91FA
:1000C000806C8C93E0EBF0E08081806C808384B561
:1000D000826084BD8C918C9380818260808385B5A1
:1000E000856085BDE1E8F0E0808185608083A1EBDB
:1000F000B0E08C9187608C93808188608083EEE68D
:10010000F0E0808182608083EFE6F0E080818260B1
:100110008083E0E7F0E08081826080838FEF87BD9D
:100120002FEF3FEF30938900209388008093B30036
:1001300013BC7894FFCF1F920F920FB60F92112429
:100140002F933F938F939F9380910A0190910B017E
:10015000019690930B0180930A0120910401309144
:1001600005018217930744F095B181E0892785B98D
:1001700010920B0110920A019F918F913F912F9144
:100180000F900FBE0F901F9018951F920F920FB6F1
:100190000F9211242F933F938F939F938091080187
:1001A0009091090101969093090180930801209193
:1001B0000201309103018217930744F098B181E066
:1001C000892788B910920901109208019F918F9197
:1001D0003F912F910F900FBE0F901F9018951F9277
:1001E0000F920FB60F9211242F933F938F939F93EB
:1001F00080910601909107010196909307018093E9
:10020000060120910001309101018217930744F00B
:100210009BB181E089278BB91092070110920601EA
:100220009F918F913F912F910F900FBE0F901F9034
:060230001895F894FFCFC1
:060236009A0001003E00E9
:00000001FF
